:020000040000fa
:080000000002040000000000f2
:020000040000fa
:10040000efa520000e7f22000e01880000000000f2
:100410000c000700a074210001002000110007005b
:10042000000020000000e000020032000000020096
:100430000000000078150200000000000040da0013
:100440000000fe004440a900000020000000e00081
:100450000300320000002000a00188004440a800f2
:100460000000060091018800800078000000eb0089
:1004700015003700e280400032a0b4009101ba00bc
:10048000e280400032a0b4009102ba00e280400055
:1004900032a0b4000002eb00472bde00f507b200eb
:1004a000602ce10004003a000059eb008301e900f0
:1004b000fdff3e00040037006128e100010032002a
:1004c0000082eb00040007001101ba000200e00006
:1004d000e8ff3a00000006003159ba008301e90044
:1004e0000c0032002159ba008301e90008003200f3
:1004f0000400e00003003a00e280400032a0b400b3
:10050000f5ff370011d9ba008301e900faff3a007c
:100510008100e800e180400032a0b4000000060045
:100520009c100400000000000817040000000000f8
:100530000040da000000fe00889fbe0080047800c2
:10054000e04280000000e00003003a0010000700d5
:100550000000e0000a003500e04280000900e000f1
:1005600002003a000004780006003700000478001a
:1005700009004000060007000000e00001003d0007
:100580000084eb00080078004f04be000000060065
:10059000800078000000e00004003a00e0852000c0
:1005a000e042880001017800060037000081eb007e
:1005b000e0a52000808f500002003e00e14288004c
:1005c0000001eb000200780000000600889fbe00da
:1005d0008a9fbe00010578000100e000040035009c
:1005e00008003c000000e000200032000500370059
:1005f00060001000e080180002003b0001f02c00b9
:100600001a0037000004be006011b8006b0920001a
:100610000982cf00020039000882cf000441b000f7
:10062000694252000e00320008003b0082817100d6
:10063000610164008904d1000884d3008b05e800bf
:100640000442e800f9ff3a000500370008044400be
:1006500089844c008b05e9000442e900fbff3a0065
:10066000190107000af0a70001f0a0004f05be0025
:100670004f04be0000000600889fbe008a9fbe0097
:100680008c1f7800360107003d01330003866c00a3
:100690006450e1002e0032006420e100330032009b
:1006a0006150e1002f0032006120e1003100320092
:1006b00085855500eb07b0000900200008042000e4
:1006c000050037000804440089844c000a0031000a
:1006d0000603430087834b000001530081815b00c8
:1006e000f8ff33000203be000800a0000804440025
:1006f00089844c00f6ff3900c639dd0083017300a0
:1007000001003200130020008904d1000884d300c6
:100710000998a300050032000800a7000300a0000c
:100720008904d1000884d3008b05e8008904d10036
:100730000884d3000001eb000281d200e200070030
:1007400001f0a1000cf0a70001f0a0001501370096
:100750006420e100170132000801be000200be0063
:10076000f7ff37006120e100120132006000b8009d
:10077000f3ff37000000200001f82700f0ff3700ea
:10078000889fbe008a9fbe008c1f7800f40007007f
:10079000fb00330003866c006450e100240032004b
:1007a0006420e100270032006150e10022003200a5
:1007b0006120e100210032008b854200eb07b1008f
:1007c0000134b800003ab8000804420089844a00a5
:1007d000013ab8000030b8008880400009014a00a2
:1007e00004003300000040008180480002014900fd
:1007f0008b05e900c909dd008301700001003200aa
:1008000013002000c814de004814dd004709de0094
:100810001200b200c808de0008847000aa000700b9
:1008200001f0a1000cf0a70001f0a000dd003700ee
:100830006120e100df0032000801be000200be00be
:10084000f7ff37006150e100fcff3a00d9003700a4
:1008500003f0a200889fbe008a9fbe008c1f780014
:10086000bf000700c60033006450e1004f003200b3
:100870006420e1005200320003826c0007003b005c
:100880000905d0000306d000820f54000c065d005d
:100890000200390002003200890178000306780066
:1008a0008582550004003d000003fd008103fd002a
:1008b0008502ea008b854200840f720002003b0033
:1008c00060001000e08018006011b8000005eb0027
:1008d0007a28e1000a00390006007800c75ddd00d3
:1008e000f707b200878075002d0037008281710004
:1008f0000a017800610560008180d1000080d3008a
:100900008502e900f9ff3b000604400087844800a7
:1009100002003b0060041400e0841c000988a3006e
:10092000070032008a8171008281710061016400d8
:100930008904d1000884d3008b05e8001700370034
:100940000978a30013003a000b00e0001300340004
:100950008b05e9000804440089844c000a447400b3
:100960000978a3000d003a000b00e00007003400f6
:100970008b05e9000804440089844c0001003a001a
:100980000b0020000978a300f7ff32000001eb0004
:1009900002003700828171000a0178004a000700d6
:1009a0000cf0a70001f0a0007e0037006420e100f9
:1009b00002003a00838f6c007e0033000801be0005
:1009c0000200be00770037000001be007c00070077
:1009d0000470a70003f0a1006509b1001600320001
:1009e0000d0035006828e10006003500f0ff2f00fb
:1009f000f1ff27000300e00013003b000100280086
:100a00000000050000004000818048008502e900e8
:100a1000fcff3a0008003700f88f420002003c005b
:100a20008000eb00000005008100d1000080d300b1
:100a30008502e800fcff3a000300e00002003b00f2
:100a400060001000e080180000000600f4ff2f0096
:100a500070003700140020006e0037000001be0057
:100a6000570007000470a70003f0a10003f8a300db
:100a700013003a006509b10010003200090035008a
:100a80006928e1000200350001002800000005008f
:100a900000004000818048008502e900fcff3a0028
:100aa00000000600f88f4200050035008100d100eb
:100ab0000080d3008502e800fcff3a000000060039
:100ac0008000eb00000005008100200061805500df
:100ad0000b003d000b00200061fe2f000100e10033
:100ae0001d00340082817100610164008904d1001d
:100af0000884d3000000e800faff3a0071002000eb
:100b00006100640003007000020060000900320010
:100b100061044400e0844c000988a500050032000f
:100b20008b05e8006808e10002003a008904d10062
:100b30000884d300f20f20000258e10005003d00b8
:100b4000c75ddd00f907b2008980750008007800f4
:100b5000000006000bf827008b007800000005005d
:100b60000004be00160007000003be000405be001e
:100b70000200be0012000700844f7500000006004e
:100b80000200be006450e100050036006420e10070
:100b9000020036000968a30001003a000800be0008
:100ba0000160a0004f0678004f05be004f04be0054
:100bb00000000600f0ff2f00f1ff2700f9ff3700cb
:100bc000c70ade00f107b200f50fb20008003200dc
:100bd000e1cf4200020032000170a00024000500b5
:100be000810f700001003200040805004400050078
:100bf000810f700002003a00140005008502e90030
:100c00000000400081c04800fcff3b000170a000d4
:100c100024000500889fbe008a9fbe00841f7800c4
:100c2000cfff07004f00780011003300f0ff2f00c6
:100c3000838f6c0006003b00040565000a00a700d6
:100c40000800370009f0a600100020000800370057
:100c5000820f5400838f5c000300390010002000d5
:100c600001003e000000200009f0a7000000ea009b
:100c70004f05be004f04be000000e000000006006b
:100c8000889fbe008a9fbe008c9fbe000001780036
:100c9000418520001100e0000b003a008085200013
:100ca000a042880080428800c142880091428800aa
:100cb000214090000004a000a040980061409000f6
:100cc0000004a000e0409800e7004100c208de00f8
:100cd000c20cdd0094428000ed852000e0a52000dc
:100ce0000d05500022002000811f7800110009002e
:100cf0000205d80000067800cf007800c308dd00a8
:100d0000e48540008001eb00e68520004585200059
:100d10000100370001027800244090000008a30081
:100d2000020032000a003700110a780094007800af
:100d3000214090000008a300fbff3200090142009f
:100d4000828f500002003900840f510046003100ac
:100d500094007800848f5000eeff3e00868f500094
:100d600002003900858f5000eaff39008042800080
:100d7000800f52004f003a00858f50004d003a001e
:100d80008301e800e18f5100e2ff36008c8f5400b0
:100d9000040036008a8f5400020031000b047800f2
:100da00012003700614ab8006151b900b0ff2f004e
:100db000010020000200500083805800800f520084
:100dc000818f5a00020035000904780007003700bf
:100dd0000d80540012a620000200400011000900fe
:100de0000a80d8000a80b900000478000800780062
:100df000d1fd070080017800e10f40002d00320096
:100e00008042800003087800824280006400410034
:100e1000a2409000808f5100020032000104a00027
:100e2000010037000104a100214198000880410021
:100e300064005000800978008042880042852000cc
:100e40000208780081428000214090000004a00048
:100e5000a0409800234090000004a100a041980009
:100e600002027800a7ff370092428800828f50006c
:100e70000900360092007800e0842000a241900032
:100e80000348780061428800140978008040eb0034
:100e9000904280002140980090428000000a780033
:100ea000244090000004a00020429800640042000a
:100eb000010037000000eb004f06be004f05be00ea
:100ec0004f04be00000006006400500090428800fd
:100ed000a04090000104a1002140980000000600fd
:100ee000889fbe008a9fbe0000057800e401500084
:100ef00013001000c285de00234090000008a3000c
:100f00000400320093428800234090000004a100b6
:100f1000a04198000100780059ff07000004780004
:100f20000000e000170032008a0f50001500320068
:100f300060b8970008005000c284de00898f550019
:100f400001003600890578004259dd008a007800ea
:100f5000080078000f0007008a0f540009003100d4
:100f60004248dd00000044008a0f500005003600b2
:100f70000a0050000000440062428000734280007a
:100f80000288be00080078004f05be004f04be0076
:100f9000000006008001eb000200370061f07900dc
:100fa0008301e800828f5100fcff3a000000060038
:020000040000fa
:100008009802000098020000980200009802000080
:100018009802000098020000980200009802000070
:1000280098020000980200004210000098020000a8
:10003800980200009802000098020000ee0f0000ed
:100048009802000098020000980200009802000040
:100058009802000098020000980200009802000030
:100068009802000098020000980200009802000020
:100078009802000098020000980200009802000010
:10008800980200009802000098020000ee1100009b
:100098009802000098020000d80700003c08000001
:1000a80098020000980200009802000098020000e0
:1000b80098020000980200009802000098020000d0
:1000c80098020000980200009802000098020000c0
:1000d80098020000980200009802000098020000b0
:1000e80098020000980200009802000098020000a0
:1000f80098020000761000009802000098020000a4
:10010800980200009802000098020000980200007f
:10011800980200009802000098020000980200006f
:10012800980200009802000098020000980200005f
:10013800980200009802000098020000980200004f
:10014800980200009802000098020000980200003f
:10015800980200009802000098020000980200002f
:10016800980200009802000098020000980200001f
:10017800980200009802000098020000980200000f
:1001880098020000980200009802000098020000ff
:1001980098020000980200009802000098020000ef
:1001a80098020000980200009802000098020000df
:1001b80098020000980200009802000098020000cf
:1001c80098020000980200009802000098020000bf
:1001d80098020000980200009802000098020000af
:1001e800980200009802000098020000980200009f
:0801f8009802000098020000cb
:020000040000fa
:10020800980200009802000098020000980200007e
:10021800980200009802000098020000980200006e
:1002280098020000980200004210000098020000a6
:10023800980200009802000098020000ee0f0000eb
:10024800980200009802000098020000980200003e
:10025800980200009802000098020000980200002e
:10026800980200009802000098020000980200001e
:10027800980200009802000098020000980200000e
:10028800980200009802000098020000ee11000099
:100298009802000098020000d80700003c080000ff
:1002a80098020000980200009802000098020000de
:1002b80098020000980200009802000098020000ce
:1002c80098020000980200009802000098020000be
:1002d80098020000980200009802000098020000ae
:1002e800980200009802000098020000980200009e
:1002f80098020000761000009802000098020000a2
:10030800980200009802000098020000980200007d
:10031800980200009802000098020000980200006d
:10032800980200009802000098020000980200005d
:10033800980200009802000098020000980200004d
:10034800980200009802000098020000980200003d
:10035800980200009802000098020000980200002d
:10036800980200009802000098020000980200001d
:10037800980200009802000098020000980200000d
:1003880098020000980200009802000098020000fd
:1003980098020000980200009802000098020000ed
:1003a80098020000980200009802000098020000dd
:1003b80098020000980200009802000098020000cd
:1003c80098020000980200009802000098020000bd
:1003d80098020000980200009802000098020000ad
:1003e800980200009802000098020000980200009d
:0803f8009802000098020000c9
:020000040000fa
:020000040002f8
:04aff800defa00007d
:020000040000fa
:020000040002f8
:04affc007f3f000093
:020000040000fa
:100fb0003600f800809fbe00829fbe00849fbe0066
:100fc000869fbe003400f80000002000a0018800c9
:100fd0000200fa000000eb00000f78000040eb0078
:100fe0000fe8b700bb0007000fe8b7000fc8bf004d
:100ff000e14f400014003a00d20107000fe8b700ab
:101000000fc8bf000004e00007003a005040800015
:101010000000e0000c0032005140800020802000e1
:1010200001000100080037000040eb0008e8b700ad
:101030000040eb0006e8b7000040eb0007e8b7000f
:101040000040eb000de8b7000fc8bf000000fb0038
:101050001041880087c0a9000080fa003400f90020
:101060004f03be004f02be004f01be004f00be0046
:101070003600f900004006003600f800809fbe00f0
:10108000829fbe00849fbe00869fbe003400f80091
:1010900000002000a00188000000fa006d00070099
:1010a000e040880087e0a9000080fa003400f900e1
:1010b0004f03be004f02be004f01be004f00be00f6
:1010c0003600f900004006000200fa0031e2a900f3
:1010d0003342a90097e0a9000000eb00000f780060
:1010e00097c0a9008040800077ff07002040800063
:1010f00075ff07001040800073ff07000080fa00b2
:10110000000006000a00fa00881f7800008fbe0069
:1011100042479800534798005e40900020e8b7008f
:101120001e01be000040220041a7240052fd07001e
:1011300002002000031824004ffd070047fe0700af
:101140000000e900c01188000000eb008011880059
:101150000000eb0090118800b3c0a800b3a0a90064
:10116000b380a900b340a800b320a900b300a90030
:10117000c0062000c2fe0700104088004006200084
:10118000bffe0700204088000040eb0008e8b700e1
:101190000040eb000de8b7000040eb000fe8b7009f
:1011a000c0062000b6fe0700804088000000eb006b
:1011b000904088000040eb0018e8b7000040eb00ca
:1011c00019e8b7000000eb00e04088004e409000b6
:1011d0001ae8b7004e40900000e8b70031e2a800de
:1011e0003342a80097e0a80097c0a80087e0a900b4
:1011f00087c0a900c01180004400dd0070044000d9
:101200006140b900f1fc07003007980041079800e1
:101210000800e00007003d000200200003782400e1
:101220003e009000ce0090008afd07003007980035
:10123000410798003e019000ce019000004022003e
:1012400041a724000cfd07004f0478000080fa003d
:10125000000006000200fa0091408000a0408000db
:10126000808f50000a003d00824080009140800045
:101270000100780000004100104f78000100e800f4
:10128000904088001e80fb00a011880003003700fa
:10129000f140800010c0b300804898000000eb00cf
:1012a0000080fa00000006000200fa00004f7800fb
:1012b00033c2bf00624060000004e000fcff3a005f
:1012c0001e80fb00a01188000000eb000080fa00e7
:1012d000000006000400fa000000eb001007980070
:1012e000b0118000004f780008c8bf000004e00083
:1012f0000e003a0010c0b3009e4f100033003a00b9
:101300001240800081802000914078000180fb0025
:10131000000041001e4878000140e80008e8b700de
:101320000000eb00100798002800370040c0b30011
:101330009e4f100011003a00124080008180200072
:10134000914078000180fb00000041001e487800b9
:101350000140e80008e8b70008c8bf0006e8b70089
:101360000040eb0008e8b70010c0b3000de8b7007c
:101370000080eb00100798001400370081802000e7
:1013800091407800c0c6b30080cf50000500360001
:1013900030002000100798000040eb0008e8b7007c
:1013a0000a003700124080008180200091407800c0
:1013b0000180fb00000041001e4878000140e80069
:1013c00008e8b7000000eb00100798001e0090002e
:1013d0000080fa00000006000400fa0010079800e0
:1013e0000000eb00000f78001e009000f040880025
:1013f0009e0090000040eb00804898009e00900006
:1014000010002000900098001e00900010489000ee
:101410000004e0000c0032001e009000200090004c
:101420000000e000080032001e009000100078006c
:10143000104078009cff0700e10f400002003a00d6
:101440000080eb00000f78001e0078000080fa009a
:10145000000006007800fa00003f9800113f980055
:1014600042f7980053f798000000eb00000f780057
:10147000cef0900040c6b30080cf5000030036008d
:1014800010002000303f9800810037004ef090009f
:101490008080fb00640147001e3890004e02070068
:1014a0000e3890009000780010c0b300804878009b
:1014b0000e389000100078008000e8005ef0900088
:1014c0000080fb004400de000043b000804878004c
:1014d0000e389000100078008080e8005ef09000e8
:1014e0006f4060000043b000804878000e389000e4
:1014f00010007800e30040004ef090000080fb00f8
:101500004400de000043b000804878000e389000b0
:1015100010007800e40040004ef090006f40600042
:101520000043b000804878004ef090000080fb003f
:101530000000400040f798000000eb001007980002
:101540000a0037000e389000900078001e009000ce
:1015500000804000104078000080fb001e0f40001b
:101560001e0090000000e800100798001e00900088
:10157000e40f5000f3ff36000000eb001007980066
:10158000130037000e389000900078001e00900085
:1015900000804000650140009e009000640047000c
:1015a0000080400010407800004978009e009000c4
:1015b0006400470000804000104078000080fb007d
:1015c0001e0f40001e0090000000e8001007980069
:1015d0004ef090008080fb001e009000808f500035
:1015e000e8ff3e000e389000900078004ef090002a
:1015f0000080fb0000804000e50040001e007800f5
:101600000080fb004400de000043b000804878000a
:101610000e389000900078004ef090000080fb00a3
:1016200000804000e60040001e0078006f4060002f
:101630000043b000804878000e3890009000780099
:101640004ef090000080fb0000804000e70040006a
:1016500040c0b300804878004ef090000080fb004e
:10166000e80040000e389000210098004ef09000f5
:101670008080fb000e389000310098008e3890007a
:1016800010c0b300904898000000eb00303f980075
:101690003e3890000080fa00000006006c00fa005e
:1016a000403798000040eb000de8b7000e81e800dd
:1016b000610620008e8040004e309000ce00070072
:1016c000000f78001e00e000030032001e007800ca
:1016d00050379800180037004e30900010407800c6
:1016e0006ee190008e80e80080417800008120004b
:1016f00058ff0700000f78001e00e00003003200d2
:101700001e007800503798000b0037000081200041
:1017100031ff0700000f78000080eb009e0f1000e3
:1017200003003a001e00780050379800020037008e
:101730000000eb00503798005e3090000080fa0007
:10174000000006000e00fa000000eb0030079800d1
:101750000000eb0010079800104080000000e80037
:10176000104078008040780000cdb30000c04000f9
:1017700010479800104080000080e800104078007a
:101780008040780000cdb30000c04000004f7800da
:101790001e4090000080fb004400dd008040780087
:1017a0001e40780000c070000ee8b700e180200005
:1017b0009140780000c8bf0080cf50000300320085
:1017c000c0002000600798008800370010408000ab
:1017d00063004000104078008040780000cdb300e6
:1017e00000c0400010479800104080006400400096
:1017f000104078008040780000cdb30000c0400069
:10180000004f78001e4090000080fb00c400dd0007
:101810001e80fb0000807000400798004e00900082
:10182000000040004007980006c8bf000080fb0091
:10183000e80050004e009000808f500003003200fe
:10184000a000200010079800660037000000eb00a1
:10185000500798000b003700114080005e00900098
:1018600000804000104078008080fb003e00900027
:1018700001004000300798005e0090000000e80082
:101880005007980006c8bf000080fb00e30050002e
:101890005e009000808f5000efff3c001140800000
:1018a00006c8bf000080fb000080400063005000bd
:1018b000104078008040780000cdb30000c04000a8
:1018c000104798001140800006c8bf000080fb0050
:1018d000008040000080e9001040780080407800df
:1018e00000cdb30000c04000004f78001e409000c3
:1018f0000080fb00c400dd001e80fb000080700043
:10190000200798002e009000804078003e00900054
:1019100080cf500003003200b00020001007980074
:101920002b0037000000eb00300798000000eb00b0
:101930005007980022003700114080005e009000a0
:101940000080400065004000104078008040780032
:1019500000cdb30000c04000104798001140800047
:101960005e0090000080400066004000104078005b
:101970008040780000cdb30000c04000004f7800e8
:10198000214080003e009000008140001e409000f9
:101990000080fb004400dd00804078001e4078009d
:1019a00000c07000004978003e0090000000e80090
:1019b000300798005e0090000080e8005007980013
:1019c000de0090004e009000808f5000daff35005e
:1019d0004e0090000080d100400798004e0090001b
:1019e00007e8b7001e009000600798006e009000a6
:1019f0000080fa00000006006e00fa003037980000
:101a000041379800523798000040eb00104798008b
:101a10003e309000a040900040c6b30080cf500000
:101a20000300360010002000603798007000370077
:101a30003e30900010409000e14f400020003a00fe
:101a40003e309000204090000040e8008040780048
:101a50004e309000014878003e3090009040900059
:101a60005e309000014878000040eb00004f7800a5
:101a70000c0037001e80fb00800078005e30900074
:101a8000008040000001e8003e309000a00090007f
:101a90001e80fb0000804000104078000049780064
:101aa0001e4fe8003e309000204090009e4f5000b6
:101ab000f0ff3e008000eb00613798004c003700db
:101ac00020c8bf000004e00016003a003e3090003d
:101ad000a0409000014f78000f0037001e4090009a
:101ae0000081fb003e309000a00090001e80fb00b3
:101af000008040000000e900904078000e80e8007f
:101b000000004100014878001e4090000040e800bd
:101b1000104798001e4fe9001e04e000efff3a0056
:101b2000150037000040eb00004f78000e00370032
:101b30001e4090000081fb003e309000a00090000d
:101b40001e80fb0000804000904078000e80e8007e
:101b500000004100014878001e4090000040e8006d
:101b6000104798001e4fe8003e3090002040900043
:101b70009e4f5000eeff3e003e309000204090000f
:101b80000040e800804078004e3090000148780026
:101b90003e309000904090005e3090000148780008
:101ba0000040eb00004f78000b0037001e80fb0068
:101bb000800078005e309000008040000001e80066
:101bc0009e80fb000e80e8000080400010407800fe
:101bd000004978001e4fe8003e3090002040900001
:101be0009e4f5000f1ff3e000000eb006037980070
:101bf0006e3090000080fa00000006006c00fa00d1
:101c000030379800413798000040eb0010479800ab
:101c10003e309000d040900040c6b30080cf5000ce
:101c2000030036001000200050379800670037008e
:101c30003e30900010009000904078004e309000b0
:101c4000114098003e309000504090000040e90064
:101c5000804078004e309000214098004e30900037
:101c600010409000e14f400016003a000040eb00a9
:101c7000004f78000c0037004e309000a00090001c
:101c80001e80fb00008140003e30900090009000dc
:101c90001e80fb00008040000000e800104078003b
:101ca000004978001e4fe8004e3090002040900020
:101cb0009e4f5000f0ff3e008000eb00513798002f
:101cc0004200370020c8bf000004e00017003a00bf
:101cd0003e309000d0409000014f78000f00370058
:101ce0001e4090000081fb003e309000900090006c
:101cf0001e80fb00008040000000e900904078005a
:101d00000e80e80000004100014878001e4090006d
:101d10000040e800104798001e4fe90010c0b300d3
:101d20009e4f1000eeff3e001500370010c0b300bc
:101d3000004f78000e0037001e4090000081fb002d
:101d40003e309000900090001e80fb00008040001c
:101d5000904078000e80e8000000410001487800c3
:101d60001e4090000040e800104798001e4fe80019
:101d70003e309000504090009e4f5000eeff3e00dd
:101d80000040eb00004f78000a0037004e30900012
:101d9000a00090001e80fb00008140009e80fb00a0
:101da0000e80e80000804000104078000049780074
:101db0001e4fe8004e309000204090009e4f500093
:101dc000f2ff3e008000eb00513798005e3090003b
:101dd0000080fa00000006000c00fa0030079800ae
:101de00041079800520798000000eb001007980088
:101df0000000eb00200798001e0037002e00900026
:101e0000800078003e00900000804000104f780075
:101e10001e009000800078005e00900080804000ee
:101e20001e80fb004400de000043b00080487800c4
:101e30001e0090000000e800100798001e009000af
:101e4000800078005e009000808040001e40780096
:101e50006f4060000043b000804878001e00900092
:101e60000000e800100798002e0090000000e80035
:101e700020079800ae0090004e009000808f500028
:101e8000deff35000080fa00000006000c00fa00ba
:101e90003007980041079800520798000000eb00b7
:101ea000100798000000eb00200798001f00370083
:101eb0002e009000800078003e00900000804000de
:101ec000104078008080fb0000fd2f000080400063
:101ed0004400dd0000417800ae0090003e0090001c
:101ee000008040000000e80010407800804078004a
:101ef00000cdb30000c0400000407100004f7800ea
:101f00001e009000800078005e009000008040007d
:101f10001e4878001e0090000000e800100798009e
:101f20002e0090000080e80020079800ae0090008e
:101f30004e009000808f5000ddff35000080fa00d9
:101f4000000006000000fa000040eb000de8b700ba
:101f50000000eb000080fa00000006000000fa001c
:101f60000dc8bf000080fb000080fa0000000600e2
:101f70000000fa0007c8bf000080fb000080fa00e4
:101f8000000006000000fa00208020000080fa0017
:101f9000000006000000fa00008120000080fa0026
:101fa000000006000400fa00000f78001e00e000a8
:101fb00003003a000080eb0010079800040037008f
:101fc0001e007800504088000000eb0010079800c9
:101fd0001e0090000080fa00000006003600f800a5
:101fe000809fbe00829fbe00849fbe00869fbe0071
:101ff0003400f80000002000a00188000000fa0072
:10200000080007000080fa003400f9004f03be000a
:102010004f02be004f01be004f00be003600f90067
:10202000004006000200fa003cc8bf000004e000c7
:102030000d0034003dc8bf000004e00005003a0078
:10204000c322a8000000eb00000f7800c342a900e3
:1020500009003700c322a9000000eb00000f780040
:10206000c342a80004003700c322a9000000eb000f
:10207000000f7800c342a90084e0a9000080fa00a4
:10208000000006003600f800809fbe00829fbe0060
:10209000849fbe00869fbe003400f8000000200030
:1020a000a00188000000fa00080007000080fa0084
:1020b0003400f9004f03be004f02be004f01be00c6
:1020c0004f00be003600f900004006000200fa0092
:1020d000c322a9000000eb00000f7800c342a90052
:1020e0008440a9000080fa00000006003600f800d5
:1020f000809fbe00829fbe00849fbe00869fbe0060
:102100003400f80000002000a00188000000fa0060
:10211000b0418000000001000080fa003400f900a6
:102120004f03be004f02be004f01be004f00be0075
:102130003600f900004006000400fa000040eb0001
:10214000004f7800e6c2bf00614060000004e0007c
:10215000020032001e04a00002003700e0cfb300ee
:102160001e4f6000e7c2bf00704060000004e00046
:10217000020032001e14a00002003700d0cfb300ce
:102180001e4f600042c8bf009e4f500090003200ba
:102190001e80fb00100798001e009000e10f500009
:1021a0002d0032001e009000e10f500004003c00a2
:1021b0001e0090000000e00008003200820037009e
:1021c0001e009000e20f5000420032001e009000fe
:1021d000e30f50005e0032007b00370042c8bf00b2
:1021e000e14f50000c003a007041800081418000b6
:1021f00061004000e0804800704188008141880013
:1022000090418000a141800061004000e0804800d2
:1022100090418800a141880042c8bf00e24f5000b1
:1022200069003a00704180008141800061005000e7
:10223000e080580070418800814188009041800012
:10224000a141800061005000e0805800904188006a
:10225000a14188005c00370042c8bf00e34f500036
:102260000c003a0070418000814180006100400014
:10227000e0804800704188008141880090418000e2
:10228000a141800061004000e0804800904188004a
:10229000a141880042c8bf000004e0004a003a00a3
:1022a000704180008141800061005000e080580052
:1022b000704188008141880090418000a1418000e8
:1022c00061005000e080580090418800a1418800e2
:1022d0003d00370042c8bf000004e0000c003a0097
:1022e000704180008141800061004000e080480032
:1022f000704188008141880090418000a1418000a8
:1023000061004000e080480090418800a1418800c1
:1023100042c8bf00e34f50002b003a0070418000dc
:102320008141800061005000e080580070418800c9
:102330008141880090418000a141800061005000ef
:10234000e080580090418800a14188001e003700bd
:1023500042c8bf00e24f50000c003a0070418000bc
:102360008141800061004000e080480070418800a9
:102370008141880090418000a141800061004000bf
:10238000e080480090418800a141880042c8bf0019
:10239000e14f50000c003a00704180008141800004
:1023a00061005000e0805800704188008141880041
:1023b00090418000a141800061005000e080580001
:1023c00090418800a14188001e40780042e8b70093
:1023d0008aa0a9000080fa00000006003600f8007c
:1023e000809fbe00829fbe00849fbe00869fbe006d
:1023f0003400f80000002000a00188000000fa006e
:10240000704180008141800070f80700f241800037
:102410000342800098f80700a299290093d923006d
:10242000d7f8070030418800414188006000b800bb
:102430007041880081418800d04180000000e800a0
:10244000d04188008760a9000080fa003400f900bc
:102450004f03be004f02be004f01be004f00be0042
:102460003600f900004006000600fa00000f780070
:1024700012079800230798000000eb00d041880065
:102480004440a9000000eb00000488000000eb00bd
:10249000100488001e0078008040eb000c0007004c
:1024a0001e009000ae00900029010700c009210025
:1024b000600007000080fa00000006000000fa003b
:1024c00036000700840007000080fa0000000600c4
:1024d0000600fa001007980041479800c122a900a1
:1024e0000000eb00000f7800c142a900a7c0a800bf
:1024f000a7a0a900a780a9001e009000e90f500026
:1025000003003c00a0002000c0418800020037000a
:102510001e009000c041880011e1a9000000eb00fe
:102520003008880000012000800888001e0090000c
:10253000cf80de0025f80700d27b2300634823000c
:102540008ff8070002002000031024008cf8070019
:102550000001be000000200001f8230046f807003b
:102560000200200003f82300b9f8070016f907005d
:102570006008880084e0a90094e0a800d202a900c5
:102580004e409000a10007008440a9009440a8009c
:1025900011e1a8000080fa00000006000200fa0025
:1025a000c322a9000000eb00000f7800c342a9007d
:1025b00094e0a9009440a900d202a9000000eb0019
:1025c000200c880011e1a9000080fa00000006003c
:1025d0000000fa00b1c0a800b1a0a900b180a90014
:1025e0000000eb00a008880000012000f00888002f
:1025f000f041800001428000d27b23006360230011
:102600001df80700f0f80700d00888008760a900cf
:102610009760a8001fe1a8000080fa0000000600f3
:102620000000fa009760a9001fe1a9000080fa00ed
:10263000000006000600fa00200798006000b800bd
:1026400070418800814188006000b8009041880096
:10265000a1418800e6c2bf00614060000004e000c4
:10266000020032001e04a00002003700e0cfb300d9
:102670001e4f6000e7c2bf00704060000004e00031
:10268000020032001e14a00002003700d0cfb300b9
:102690001e4f60001e40780042e8b700c1c2a8008b
:1026a0000000eb0010079800e402a800e582a800f3
:1026b000bec0a800bea0a800be80a9008aa0a90034
:1026c0009aa0a8002e009000b0418800c0ff07002b
:1026d0000080fa00000006000000fa009aa0a9009d
:1026e000cfff07000080fa00000006000000fa009b
:1026f00030418000414180000080fa000000060067
:102700000000fa0090418000a1418000aff707006f
:1027100002002000433b240019f8070002002000bb
:1027200083442400d4f707000080fa00000006006c
:102730000800fa00100798000000eb00000f780076
:102740001e009000e90f500005003e00a000200090
:10275000c041880010002000000f78000200370000
:102760001e009000c041880011e1a9000000eb00ac
:10277000300888001e009000cf80de0093f707002d
:1027800020079800310798001e0090000000e0002c
:1027900007003d0002002000037824002e00900076
:1027a000be0090002bf80700200798003107980022
:1027b000d27b2300634823002e009000be009000cf
:1027c000eff707000200200003102400ecf70700d9
:1027d0000001be000000200001f82300a6f707005a
:1027e0000200200003f8230019f8070076f807001c
:1027f000600888003cc8bf000400070011e1a80081
:102800001e0078000080fa00000006000c00fa00ac
:10281000881f7800204798000000eb00000f780028
:102820002e4090000004e00008003d002e40900083
:102830008000fb000080eb000088b9002047980072
:1028400010c0b3003de8b700020037000040eb00c5
:102850003de8b700ae40900040c6b30080cf5000c6
:102860000400340040c6b300204798001000200048
:10287000000f78002e4090003ce8b7000000eb000d
:10288000200c88000000eb00100c88002e40900007
:102890000004e00003003a0010002000000c880053
:1028a000250037002e4090000000fb00cf80de00a6
:1028b00046f707004007980051079800c84180007c
:1028c0006140b90041f707002007980031079800e0
:1028d0000800e00007003d0002002000037824000b
:1028e0002e009000be009000daf707002007980045
:1028f0003107980002002000832c24002e00900055
:10290000be0090009ef70700d27b2300634823009f
:102910009bf70700020020000310240098f707002f
:102920000001be004e009000de00900052f707004c
:1029300025f80700000c880050002000200c8800bb
:102940001e0078004f0478000080fa0000000600a6
:102950000600fa0010079800210798000000eb001d
:10296000000f780082eb210053e023001e0090004e
:10297000ae00900035f807000000e00001003c00c8
:102980000700370080eb210051e02300f041880070
:102990000142880010002000000f7800130037006b
:1029a00072712b00138d23001e009000ae0090006a
:1029b00028f807000000e00001003500070037009c
:1029c00070712b00118d2300f041880001428800b6
:1029d00010002000000f7800040037001e00900057
:1029e000ae009000f0418800014288001e0078008f
:1029f0000080fa00000006000200fa00000f7800d4
:102a000030418000414180001e0178000089be00f5
:102a100050418000614180001e0178002001980033
:102a20003101980090418000a14180001e01780092
:102a30006001980071019800c14180001e0078007b
:102a400011089800c1832000914078001e00780092
:102a500061509800d1832000914078001e007800da
:102a600071509800f0418000014280001e01780002
:102a70004009980051099800d14180001e0078005b
:102a8000210898000080fa00000006000400fa0007
:102a9000881f7800d84180006140b900cbf607005c
:102aa000008fbe000800e00005003d00020020008d
:102ab000037824001e00be0066f70700008fbe00ea
:102ac000f2418000034280001e00be002cf7070088
:102ad0004f0478000080fa00000006000000fa00b1
:102ae0000000eb00d04188000080fa0000000600e2
:102af0001e00fa000040eb00004f9800c0062000c6
:102b00005ff80700800078004084200021009800d2
:102b100000f02f00001688008e49900012c0b3000c
:102b2000000020006161240076f907006011b80000
:102b3000c8f707000000e00001003500030037007f
:102b40000080eb00600f9800ae003700a2702d00ef
:102b500033c22300401f200043fe070041842000b1
:102b60000040eb00e0409800418420000040eb0072
:102b7000e0409800418420000040eb00f0409800c5
:102b8000418420000040eb00f0409800807021005c
:102b900004fd0700000037004084200060409000e2
:102ba0000004e00003003a00104180000000e00053
:102bb000f9ff3200104180000000e0000c003200fc
:102bc00010418000ec0f5000f3ff32000040eb009a
:102bd000404f9800b0c0b300504f98000040eb0049
:102be000604f98006c004700acfa0700eaff37001e
:102bf000418420000040eb00e0409800a0c0b300fa
:102c0000104f980040842000104090000080fb008e
:102c1000500f98005e089000e30f50003c00320017
:102c2000de089000e38f500007003c005e08900033
:102c3000e10f50000b003200de089000e28f5000e0
:102c40001c003200650037005e089000e40f500061
:102c50003e003200de089000e58f50004b0032004d
:102c60005e00370040842000200090009000780033
:102c7000310798003e009000adfe07000000e00024
:102c800002003200b0c0b300104f98000040eb00cb
:102c9000404f98001e489000504f98000040eb00b5
:102ca000604f98006c0047007cfa070050079800be
:102cb000b9ff370040842000200090009040780049
:102cc000414798004e409000d0fe07000000e00011
:102cd00002003200b0c0b300104f98004e40900088
:102ce0000000fb00101688000040eb00404f9800e9
:102cf0001e489000504f98000040eb00604f980035
:102d00006c00470065fa070050079800a2ff3700e3
:102d100076fe07002cf70700200f98000040eb001c
:102d2000404f9800a0c0b300504f98007400470077
:102d3000000f980020c0b300604f98006c0047005f
:102d400056fa07005007980093ff37006cfe070003
:102d50001df70700300f9800410f98000040eb006e
:102d6000404f9800a0c0b300504f98007600470035
:102d7000000f980040c0b300604f98006c004700ff
:102d800046fa07005007980083ff37004084200070
:102d900020009000301f7800201778001e00be0031
:102da000ebfe07000000e00002003200b0c0b300fc
:102db000104f98000040eb00404f98009e48900054
:102dc000514f98000040eb00604f98006c004700a6
:102dd00032fa0700500798006fff37000040eb0001
:102de000404f9800b0c0b300504f98000040eb0037
:102df000604f98006c00470028fa070050079800c1
:102e000065ff37006e0890000080fa0000000600a1
:102e10000600fa00100798001e009000000f7800ce
:102e2000418420000040eb00e04098001e00780044
:102e3000d0489000408420007140980040842000d9
:102e4000704090000004e000030032000080eb00be
:102e5000200798000c0037001e007800a048900062
:102e60004084200011409800418420001e0078001a
:102e700062fb07004184200010c0b300e0409800ce
:102e80000000eb00200798002e0090000080fa0060
:042e90000000060038
:020000040000fa
:102e9400260800001e000000000000004408000096
:102ea40008000000000000000008000026000000e8
:102eb400000000004c0800001000000000000000aa
:102ec4005c08000002000000000000000000000098
:00000001FF
