:020000040000fa
:080000000002040000000000f2
:020000040000fa
:100400006fa920000e7f22000e018800000000006e
:100410000c00070060992100010020001100070076
:10042000000020000000e000020032000000020096
:10043000000000007a150200000000000040da0011
:100440000000fe004440a900000020000000e00081
:100450000300320000002000a00188004440a800f2
:100460000000060091018800800078000000eb0089
:1004700015003700e280400032a0b4009101ba00bc
:10048000e280400032a0b4009102ba00e280400055
:1004900032a0b4000002eb00472bde00f507b200eb
:1004a000602ce10004003a000059eb008301e900f0
:1004b000fdff3e00040037006128e100010032002a
:1004c0000082eb00040007001101ba000200e00006
:1004d000e8ff3a00000006003159ba008301e90044
:1004e0000c0032002159ba008301e90008003200f3
:1004f0000400e00003003a00e280400032a0b400b3
:10050000f5ff370011d9ba008301e900faff3a007c
:100510008100e800e180400032a0b4000000060045
:100520009c10040000000000fe1704000000000002
:100530000040da000000fe00889fbe0080047800c2
:10054000a04480000000e00003003a001000070013
:100550000000e0000a003500a04480000900e0002f
:1005600002003a000004780006003700000478001a
:1005700009004000060007000000e00001003d0007
:100580000084eb00080078004f04be000000060065
:10059000800078000000e00004003a00608920003c
:1005a000a044880001017800060037000081eb00bc
:1005b00060a92000808f500002003e00a144880006
:1005c0000001eb000200780000000600889fbe00da
:1005d0008a9fbe00010578000100e000040035009c
:1005e00008003c000000e000200032000500370059
:1005f00060001000e080180002003b0001f02c00b9
:100600001a0037000004be006011b8006b0920001a
:100610000982cf00020039000882cf000441b000f7
:10062000694252000e00320008003b0082817100d6
:10063000610164008904d1000884d3008b05e800bf
:100640000442e800f9ff3a000500370008044400be
:1006500089844c008b05e9000442e900fbff3a0065
:10066000190107000af0a70001f0a0004f05be0025
:100670004f04be0000000600889fbe008a9fbe0097
:100680008c1f7800360107003d01330003866c00a3
:100690006450e1002e0032006420e100330032009b
:1006a0006150e1002f0032006120e1003100320092
:1006b00085855500eb07b0000900200008042000e4
:1006c000050037000804440089844c000a0031000a
:1006d0000603430087834b000001530081815b00c8
:1006e000f8ff33000203be000800a0000804440025
:1006f00089844c00f6ff3900c639dd0083017300a0
:1007000001003200130020008904d1000884d300c6
:100710000998a300050032000800a7000300a0000c
:100720008904d1000884d3008b05e8008904d10036
:100730000884d3000001eb000281d200e200070030
:1007400001f0a1000cf0a70001f0a0001501370096
:100750006420e100170132000801be000200be0063
:10076000f7ff37006120e100120132006000b8009d
:10077000f3ff37000000200001f82700f0ff3700ea
:10078000889fbe008a9fbe008c1f7800f40007007f
:10079000fb00330003866c006450e100240032004b
:1007a0006420e100270032006150e10022003200a5
:1007b0006120e100210032008b854200eb07b1008f
:1007c0000134b800003ab8000804420089844a00a5
:1007d000013ab8000030b8008880400009014a00a2
:1007e00004003300000040008180480002014900fd
:1007f0008b05e900c909dd008301700001003200aa
:1008000013002000c814de004814dd004709de0094
:100810001200b200c808de0008847000aa000700b9
:1008200001f0a1000cf0a70001f0a000dd003700ee
:100830006120e100df0032000801be000200be00be
:10084000f7ff37006150e100fcff3a00d9003700a4
:1008500003f0a200889fbe008a9fbe008c1f780014
:10086000bf000700c60033006450e1004f003200b3
:100870006420e1005200320003826c0007003b005c
:100880000905d0000306d000820f54000c065d005d
:100890000200390002003200890178000306780066
:1008a0008582550004003d000003fd008103fd002a
:1008b0008502ea008b854200840f720002003b0033
:1008c00060001000e08018006011b8000005eb0027
:1008d0007a28e1000a00390006007800c75ddd00d3
:1008e000f707b200878075002d0037008281710004
:1008f0000a017800610560008180d1000080d3008a
:100900008502e900f9ff3b000604400087844800a7
:1009100002003b0060041400e0841c000988a3006e
:10092000070032008a8171008281710061016400d8
:100930008904d1000884d3008b05e8001700370034
:100940000978a30013003a000b00e0001300340004
:100950008b05e9000804440089844c000a447400b3
:100960000978a3000d003a000b00e00007003400f6
:100970008b05e9000804440089844c0001003a001a
:100980000b0020000978a300f7ff32000001eb0004
:1009900002003700828171000a0178004a000700d6
:1009a0000cf0a70001f0a0007e0037006420e100f9
:1009b00002003a00838f6c007e0033000801be0005
:1009c0000200be00770037000001be007c00070077
:1009d0000470a70003f0a1006509b1001600320001
:1009e0000d0035006828e10006003500f0ff2f00fb
:1009f000f1ff27000300e00013003b000100280086
:100a00000000050000004000818048008502e900e8
:100a1000fcff3a0008003700f88f420002003c005b
:100a20008000eb00000005008100d1000080d300b1
:100a30008502e800fcff3a000300e00002003b00f2
:100a400060001000e080180000000600f4ff2f0096
:100a500070003700140020006e0037000001be0057
:100a6000570007000470a70003f0a10003f8a300db
:100a700013003a006509b10010003200090035008a
:100a80006928e1000200350001002800000005008f
:100a900000004000818048008502e900fcff3a0028
:100aa00000000600f88f4200050035008100d100eb
:100ab0000080d3008502e800fcff3a000000060039
:100ac0008000eb00000005008100200061805500df
:100ad0000b003d000b00200061fe2f000100e10033
:100ae0001d00340082817100610164008904d1001d
:100af0000884d3000000e800faff3a0071002000eb
:100b00006100640003007000020060000900320010
:100b100061044400e0844c000988a500050032000f
:100b20008b05e8006808e10002003a008904d10062
:100b30000884d300f20f20000258e10005003d00b8
:100b4000c75ddd00f907b2008980750008007800f4
:100b5000000006000bf827008b007800000005005d
:100b60000004be00160007000003be000405be001e
:100b70000200be0012000700844f7500000006004e
:100b80000200be006450e100050036006420e10070
:100b9000020036000968a30001003a000800be0008
:100ba0000160a0004f0678004f05be004f04be0054
:100bb00000000600f0ff2f00f1ff2700f9ff3700cb
:100bc000c70ade00f107b200f50fb20008003200dc
:100bd000e1cf4200020032000170a00024000500b5
:100be000810f700001003200040805004400050078
:100bf000810f700002003a00140005008502e90030
:100c00000000400081c04800fcff3b000170a000d4
:100c100024000500889fbe008a9fbe00841f7800c4
:100c2000cfff07004f00780011003300f0ff2f00c6
:100c3000838f6c0006003b00040565000a00a700d6
:100c40000800370009f0a600100020000800370057
:100c5000820f5400838f5c000300390010002000d5
:100c600001003e000000200009f0a7000000ea009b
:100c70004f05be004f04be000000e000000006006b
:100c8000889fbe008a9fbe008c9fbe000001780036
:100c9000c18820001100e0000b003a00008920000c
:100ca00060448800404488008144880051448800a2
:100cb000214090000004a000a040980061409000f6
:100cc0000004a000e0409800e7004100c208de00f8
:100cd000c20cdd00544480006d89200060a9200012
:100ce0000d05500022002000811f7800110009002e
:100cf0000205d80000067800cf007800c308dd00a8
:100d0000e48540008001eb0066892000c588200052
:100d10000100370001027800244090000008a30081
:100d2000020032000a003700110a780094007800af
:100d3000214090000008a300fbff3200090142009f
:100d4000828f500002003900840f510046003100ac
:100d500094007800848f5000eeff3e00868f500094
:100d600002003900858f5000eaff390040448000be
:100d7000800f52004f003a00858f50004d003a001e
:100d80008301e800e18f5100e2ff36008c8f5400b0
:100d9000040036008a8f5400020031000b047800f2
:100da00012003700614ab8006151b900b0ff2f004e
:100db000010020000200500083805800800f520084
:100dc000818f5a00020035000904780007003700bf
:100dd0000d80540092a9200002004000110009007b
:100de0000a80d8000a80b900000478000800780062
:100df000d1fd070080017800e10f40002d00320096
:100e000040448000030878004244800064004100b0
:100e1000a2409000808f5100020032000104a00027
:100e2000010037000104a100214198000880410021
:100e3000640050008009780040448800c288200087
:100e40000208780041448000214090000004a00086
:100e5000a0409800234090000004a100a041980009
:100e600002027800a7ff370052448800828f5000aa
:100e7000090036009200780060882000a2419000ae
:100e80000348780021448800140978008040eb0072
:100e9000504480002140980050448000000a7800af
:100ea000244090000004a00020429800640042000a
:100eb000010037000000eb004f06be004f05be00ea
:100ec0004f04be000000060064005000504488003b
:100ed000a04090000104a1002140980000000600fd
:100ee000889fbe008a9fbe0000057800e401500084
:100ef00013001000c285de00234090000008a3000c
:100f00000400320053448800234090000004a100f4
:100f1000a04198000100780059ff07000004780004
:100f20000000e000170032008a0f50001500320068
:100f300060b8970008005000c284de00898f550019
:100f400001003600890578004259dd008a007800ea
:100f5000080078000f0007008a0f540009003100d4
:100f60004248dd00000044008a0f500005003600b2
:100f70000a005000000044002244800033448000f6
:100f80000288be00080078004f05be004f04be0076
:100f9000000006008001eb000200370061f07900dc
:100fa0008301e800828f5100fcff3a000000060038
:020000040000fa
:100008009802000098020000980200009802000080
:100018009802000098020000980200009802000070
:1000280098020000980200004210000098020000a8
:10003800980200009802000098020000ee0f0000ed
:100048009802000098020000980200009802000040
:100058009802000098020000980200009802000030
:100068009802000098020000980200009802000020
:100078009802000098020000980200009802000010
:10008800980200009802000098020000ee1100009b
:100098009802000098020000d80700003c08000001
:1000a80098020000980200009802000098020000e0
:1000b80098020000980200009802000098020000d0
:1000c80098020000980200009802000098020000c0
:1000d80098020000980200009802000098020000b0
:1000e80098020000980200009802000098020000a0
:1000f80098020000761000009802000098020000a4
:10010800980200009802000098020000980200007f
:10011800980200009802000098020000980200006f
:10012800980200009802000098020000980200005f
:10013800980200009802000098020000980200004f
:10014800980200009802000098020000980200003f
:10015800980200009802000098020000980200002f
:10016800980200009802000098020000980200001f
:10017800980200009802000098020000980200000f
:1001880098020000980200009802000098020000ff
:1001980098020000980200009802000098020000ef
:1001a80098020000980200009802000098020000df
:1001b80098020000980200009802000098020000cf
:1001c80098020000980200009802000098020000bf
:1001d80098020000980200009802000098020000af
:1001e800980200009802000098020000980200009f
:0801f8009802000098020000cb
:020000040000fa
:10020800980200009802000098020000980200007e
:10021800980200009802000098020000980200006e
:1002280098020000980200004210000098020000a6
:10023800980200009802000098020000ee0f0000eb
:10024800980200009802000098020000980200003e
:10025800980200009802000098020000980200002e
:10026800980200009802000098020000980200001e
:10027800980200009802000098020000980200000e
:10028800980200009802000098020000ee11000099
:100298009802000098020000d80700003c080000ff
:1002a80098020000980200009802000098020000de
:1002b80098020000980200009802000098020000ce
:1002c80098020000980200009802000098020000be
:1002d80098020000980200009802000098020000ae
:1002e800980200009802000098020000980200009e
:1002f80098020000761000009802000098020000a2
:10030800980200009802000098020000980200007d
:10031800980200009802000098020000980200006d
:10032800980200009802000098020000980200005d
:10033800980200009802000098020000980200004d
:10034800980200009802000098020000980200003d
:10035800980200009802000098020000980200002d
:10036800980200009802000098020000980200001d
:10037800980200009802000098020000980200000d
:1003880098020000980200009802000098020000fd
:1003980098020000980200009802000098020000ed
:1003a80098020000980200009802000098020000dd
:1003b80098020000980200009802000098020000cd
:1003c80098020000980200009802000098020000bd
:1003d80098020000980200009802000098020000ad
:1003e800980200009802000098020000980200009d
:0803f8009802000098020000c9
:020000040000fa
:020000040002f8
:04aff800defa00007d
:020000040000fa
:020000040002f8
:04affc007f3f000093
:020000040000fa
:100fb0003600f800809fbe00829fbe00849fbe0066
:100fc000869fbe003400f80000002000a0018800c9
:100fd0000200fa000000eb00000f78000040eb0078
:100fe00047e8b700bb00070047e8b70047c8bf00a5
:100ff000e14f400014003a00d201070047e8b70073
:1010000047c8bf000004e00007003a00104280001b
:101010000000e0000c00320011428000a08320009c
:1010200001000100080037000040eb0040e8b70075
:101030000040eb003ee8b7000040eb003fe8b7009f
:101040000040eb0045e8b70047c8bf000000fb00c8
:10105000d042880087c0a9000080fa003400f9005f
:101060004f03be004f02be004f01be004f00be0046
:101070003600f900004006003600f800809fbe00f0
:10108000829fbe00849fbe00869fbe003400f80091
:1010900000002000a00188000000fa006d00070099
:1010a000a042880087e0a9000080fa003400f9001f
:1010b0004f03be004f02be004f01be004f00be00f6
:1010c0003600f900004006000200fa0031e2a900f3
:1010d0003342a90097e0a9000000eb00000f780060
:1010e00097c0a9004042800077ff0700e0418000e0
:1010f00075ff0700d041800073ff07000080fa00f1
:10110000000006000a00fa00881f7800008fbe0069
:1011100042479800534798005e40900058e8b70057
:101120001e01be000040220041a7240052fd07001e
:1011300002002000031824004ffd070047fe0700af
:101140000000e900c01188000000eb008011880059
:101150000000eb0090118800b3c0a800b3a0a90064
:10116000b380a900b340a800b320a900b300a90030
:10117000c0062000c2fe0700d041880040062000c3
:10118000bffe0700e04188000040eb0040e8b700e8
:101190000040eb0045e8b7000040eb0047e8b7002f
:1011a000c0062000b6fe0700404288000000eb00a9
:1011b000504288000040eb0050e8b7000040eb00d0
:1011c00051e8b7000000eb00a04288004e409000bc
:1011d00052e8b7004e40900038e8b70031e2a8006e
:1011e0003342a80097e0a80097c0a80087e0a900b4
:1011f00087c0a900c01180004400dd0070044000d9
:101200006140b900f1fc07003007980041079800e1
:101210000800e00007003d000200200003782400e1
:101220003e009000ce0090008afd07003007980035
:10123000410798003e019000ce019000004022003e
:1012400041a724000cfd07004f0478000080fa003d
:10125000000006000200fa00514280006042800057
:10126000808f50000a003d004242800051428000c1
:101270000100780000004100104f78000100e800f4
:10128000504288001e80fb00a01188000300370038
:10129000b142800010c0b300804898000000eb000d
:1012a0000080fa00000006000200fa00004f7800fb
:1012b00033c2bf00624060000004e000fcff3a005f
:1012c0001e80fb00a01188000000eb000080fa00e7
:1012d000000006000400fa000000eb001007980070
:1012e000b0118000004f780040c8bf000004e0004b
:1012f0000e003a0010c0b3009e4f100033003a00b9
:10130000d241800001842000914078000180fb00e0
:10131000000041001e4878000140e80040e8b700a6
:101320000000eb00100798002800370040c0b30011
:101330009e4f100011003a00d2418000018420002d
:10134000914078000180fb00000041001e487800b9
:101350000140e80040e8b70040c8bf003ee8b700e1
:101360000040eb0040e8b70010c0b30045e8b7000c
:101370000080eb0010079800140037000184200063
:1013800091407800c0c6b30080cf50000500360001
:1013900030002000100798000040eb0040e8b70044
:1013a0000a003700d241800001842000914078007b
:1013b0000180fb00000041001e4878000140e80069
:1013c00040e8b7000000eb00100798001e009000f6
:1013d0000080fa00000006000400fa0010079800e0
:1013e0000000eb00000f78001e009000b042880063
:1013f0009e0090000040eb00804898009e00900006
:1014000010002000900098001e00900010489000ee
:101410000004e0000c0032001e009000200090004c
:101420000000e000080032001e009000100078006c
:10143000104078009cff0700e10f400002003a00d6
:101440000080eb00000f78001e0078000080fa009a
:10145000000006007800fa00003f9800113f980055
:1014600042f7980053f798000000eb00000f780057
:10147000cef0900040c6b30080cf5000030036008d
:1014800010002000303f9800810037004ef090009f
:101490008080fb00640147001e3890004e02070068
:1014a0000e3890009000780010c0b300804878009b
:1014b0000e389000100078008000e8005ef0900088
:1014c0000080fb004400de000043b000804878004c
:1014d0000e389000100078008080e8005ef09000e8
:1014e0006f4060000043b000804878000e389000e4
:1014f00010007800e30040004ef090000080fb00f8
:101500004400de000043b000804878000e389000b0
:1015100010007800e40040004ef090006f40600042
:101520000043b000804878004ef090000080fb003f
:101530000000400040f798000000eb001007980002
:101540000a0037000e389000900078001e009000ce
:1015500000804000104078000080fb001e0f40001b
:101560001e0090000000e800100798001e00900088
:10157000e40f5000f3ff36000000eb001007980066
:10158000130037000e389000900078001e00900085
:1015900000804000650140009e009000640047000c
:1015a0000080400010407800004978009e009000c4
:1015b0006400470000804000104078000080fb007d
:1015c0001e0f40001e0090000000e8001007980069
:1015d0004ef090008080fb001e009000808f500035
:1015e000e8ff3e000e389000900078004ef090002a
:1015f0000080fb0000804000e50040001e007800f5
:101600000080fb004400de000043b000804878000a
:101610000e389000900078004ef090000080fb00a3
:1016200000804000e60040001e0078006f4060002f
:101630000043b000804878000e3890009000780099
:101640004ef090000080fb0000804000e70040006a
:1016500040c0b300804878004ef090000080fb004e
:10166000e80040000e389000210098004ef09000f5
:101670008080fb000e389000310098008e3890007a
:1016800010c0b300904898000000eb00303f980075
:101690003e3890000080fa00000006006c00fa005e
:1016a000403798000040eb0045e8b7000e81e800a5
:1016b000610620008e8040004e309000ce00070072
:1016c000000f78001e00e000030032001e007800ca
:1016d00050379800180037004e30900010407800c6
:1016e0006ee190008e80e8008041780080842000c8
:1016f00058ff0700000f78001e00e00003003200d2
:101700001e007800503798000b00370080842000be
:1017100031ff0700000f78000080eb009e0f1000e3
:1017200003003a001e00780050379800020037008e
:101730000000eb00503798005e3090000080fa0007
:10174000000006000e00fa000000eb0030079800d1
:101750000000eb0010079800d04180000000e80076
:10176000104078008040780000cdb30000c04000f9
:1017700010479800d04180000080e80010407800b9
:101780008040780000cdb30000c04000004f7800da
:101790001e4090000080fb004400dd008040780087
:1017a0001e40780000c0700046e8b7006184200049
:1017b0009140780038c8bf0080cf5000030032004d
:1017c000c00020006007980088003700d0418000ea
:1017d00063004000104078008040780000cdb300e6
:1017e00000c0400010479800d041800064004000d5
:1017f000104078008040780000cdb30000c0400069
:10180000004f78001e4090000080fb00c400dd0007
:101810001e80fb0000807000400798004e00900082
:1018200000004000400798003ec8bf000080fb0059
:10183000e80050004e009000808f500003003200fe
:10184000a000200010079800660037000000eb00a1
:10185000500798000b003700d14180005e009000d7
:1018600000804000104078008080fb003e00900027
:1018700001004000300798005e0090000000e80082
:10188000500798003ec8bf000080fb00e3005000f6
:101890005e009000808f5000efff3c00d14180003f
:1018a0003ec8bf000080fb00008040006300500085
:1018b000104078008040780000cdb30000c04000a8
:1018c00010479800d14180003ec8bf000080fb0057
:1018d000008040000080e9001040780080407800df
:1018e00000cdb30000c04000004f78001e409000c3
:1018f0000080fb00c400dd001e80fb000080700043
:10190000200798002e009000804078003e00900054
:1019100080cf500003003200b00020001007980074
:101920002b0037000000eb00300798000000eb00b0
:101930005007980022003700d14180005e009000df
:101940000080400065004000104078008040780032
:1019500000cdb30000c0400010479800d141800086
:101960005e0090000080400066004000104078005b
:101970008040780000cdb30000c04000004f7800e8
:10198000e14180003e009000008140001e40900038
:101990000080fb004400dd00804078001e4078009d
:1019a00000c07000004978003e0090000000e80090
:1019b000300798005e0090000080e8005007980013
:1019c000de0090004e009000808f5000daff35005e
:1019d0004e0090000080d100400798004e0090001b
:1019e0003fe8b7001e009000600798006e0090006e
:1019f0000080fa00000006006e00fa003037980000
:101a000041379800523798000040eb00104798008b
:101a10003e309000a040900040c6b30080cf500000
:101a20000300360010002000603798007000370077
:101a30003e30900010409000e14f400020003a00fe
:101a40003e309000204090000040e8008040780048
:101a50004e309000014878003e3090009040900059
:101a60005e309000014878000040eb00004f7800a5
:101a70000c0037001e80fb00800078005e30900074
:101a8000008040000001e8003e309000a00090007f
:101a90001e80fb0000804000104078000049780064
:101aa0001e4fe8003e309000204090009e4f5000b6
:101ab000f0ff3e008000eb00613798004c003700db
:101ac00058c8bf000004e00016003a003e30900005
:101ad000a0409000014f78000f0037001e4090009a
:101ae0000081fb003e309000a00090001e80fb00b3
:101af000008040000000e900904078000e80e8007f
:101b000000004100014878001e4090000040e800bd
:101b1000104798001e4fe9001e04e000efff3a0056
:101b2000150037000040eb00004f78000e00370032
:101b30001e4090000081fb003e309000a00090000d
:101b40001e80fb0000804000904078000e80e8007e
:101b500000004100014878001e4090000040e8006d
:101b6000104798001e4fe8003e3090002040900043
:101b70009e4f5000eeff3e003e309000204090000f
:101b80000040e800804078004e3090000148780026
:101b90003e309000904090005e3090000148780008
:101ba0000040eb00004f78000b0037001e80fb0068
:101bb000800078005e309000008040000001e80066
:101bc0009e80fb000e80e8000080400010407800fe
:101bd000004978001e4fe8003e3090002040900001
:101be0009e4f5000f1ff3e000000eb006037980070
:101bf0006e3090000080fa00000006006c00fa00d1
:101c000030379800413798000040eb0010479800ab
:101c10003e309000d040900040c6b30080cf5000ce
:101c2000030036001000200050379800670037008e
:101c30003e30900010009000904078004e309000b0
:101c4000114098003e309000504090000040e90064
:101c5000804078004e309000214098004e30900037
:101c600010409000e14f400016003a000040eb00a9
:101c7000004f78000c0037004e309000a00090001c
:101c80001e80fb00008140003e30900090009000dc
:101c90001e80fb00008040000000e800104078003b
:101ca000004978001e4fe8004e3090002040900020
:101cb0009e4f5000f0ff3e008000eb00513798002f
:101cc0004200370058c8bf000004e00017003a0087
:101cd0003e309000d0409000014f78000f00370058
:101ce0001e4090000081fb003e309000900090006c
:101cf0001e80fb00008040000000e900904078005a
:101d00000e80e80000004100014878001e4090006d
:101d10000040e800104798001e4fe90010c0b300d3
:101d20009e4f1000eeff3e001500370010c0b300bc
:101d3000004f78000e0037001e4090000081fb002d
:101d40003e309000900090001e80fb00008040001c
:101d5000904078000e80e8000000410001487800c3
:101d60001e4090000040e800104798001e4fe80019
:101d70003e309000504090009e4f5000eeff3e00dd
:101d80000040eb00004f78000a0037004e30900012
:101d9000a00090001e80fb00008140009e80fb00a0
:101da0000e80e80000804000104078000049780074
:101db0001e4fe8004e309000204090009e4f500093
:101dc000f2ff3e008000eb00513798005e3090003b
:101dd0000080fa00000006000c00fa0030079800ae
:101de00041079800520798000000eb001007980088
:101df0000000eb00200798001e0037002e00900026
:101e0000800078003e00900000804000104f780075
:101e10001e009000800078005e00900080804000ee
:101e20001e80fb004400de000043b00080487800c4
:101e30001e0090000000e800100798001e009000af
:101e4000800078005e009000808040001e40780096
:101e50006f4060000043b000804878001e00900092
:101e60000000e800100798002e0090000000e80035
:101e700020079800ae0090004e009000808f500028
:101e8000deff35000080fa00000006000c00fa00ba
:101e90003007980041079800520798000000eb00b7
:101ea000100798000000eb00200798001f00370083
:101eb0002e009000800078003e00900000804000de
:101ec000104078008080fb0000fd2f000080400063
:101ed0004400dd0000417800ae0090003e0090001c
:101ee000008040000000e80010407800804078004a
:101ef00000cdb30000c0400000407100004f7800ea
:101f00001e009000800078005e009000008040007d
:101f10001e4878001e0090000000e800100798009e
:101f20002e0090000080e80020079800ae0090008e
:101f30004e009000808f5000ddff35000080fa00d9
:101f4000000006000000fa000040eb0045e8b70082
:101f50000000eb000080fa00000006000000fa001c
:101f600045c8bf000080fb000080fa0000000600aa
:101f70000000fa003fc8bf000080fb000080fa00ac
:101f8000000006000000fa00a08320000080fa0094
:101f9000000006000000fa00808420000080fa00a3
:101fa000000006000400fa00000f78001e00e000a8
:101fb00003003a000080eb0010079800040037008f
:101fc0001e007800104288000000eb001007980007
:101fd0001e0090000080fa00000006003600f800a5
:101fe000809fbe00829fbe00849fbe00869fbe0071
:101ff0003400f80000002000a00188000000fa0072
:10200000080007000080fa003400f9004f03be000a
:102010004f02be004f01be004f00be003600f90067
:10202000004006000200fa0074c8bf000004e0008f
:102030000d00340075c8bf000004e00005003a0040
:10204000c322a8000000eb00000f7800c342a900e3
:1020500009003700c322a9000000eb00000f780040
:10206000c342a80004003700c322a9000000eb000f
:10207000000f7800c342a90084e0a9000080fa00a4
:10208000000006003600f800809fbe00829fbe0060
:10209000849fbe00869fbe003400f8000000200030
:1020a000a00188000000fa00080007000080fa0084
:1020b0003400f9004f03be004f02be004f01be00c6
:1020c0004f00be003600f900004006000200fa0092
:1020d000c322a9000000eb00000f7800c342a90052
:1020e0008440a9000080fa00000006003600f800d5
:1020f000809fbe00829fbe00849fbe00869fbe0060
:102100003400f80000002000a00188000000fa0060
:1021100070438000000001000080fa003400f900e4
:102120004f03be004f02be004f01be004f00be0075
:102130003600f900004006000400fa000040eb0001
:10214000004f7800e6c2bf00614060000004e0007c
:10215000020032001e04a00002003700e0cfb300ee
:102160001e4f6000e7c2bf00704060000004e00046
:10217000020032001e14a00002003700d0cfb300ce
:102180001e4f60007ac8bf009e4f50009000320082
:102190001e80fb00100798001e009000e10f500009
:1021a0002d0032001e009000e10f500004003c00a2
:1021b0001e0090000000e00008003200820037009e
:1021c0001e009000e20f5000420032001e009000fe
:1021d000e30f50005e0032007b0037007ac8bf007a
:1021e000e14f50000c003a00304380004143800032
:1021f00061004000e080480030438800414388008f
:10220000504380006143800061004000e08048004e
:1022100050438800614388007ac8bf00e24f5000f5
:1022200069003a0030438000414380006100500063
:10223000e0805800304388004143880050438000cc
:102240006143800061005000e080580050438800e6
:10225000614388005c0037007ac8bf00e34f50003c
:102260000c003a0030438000414380006100400090
:10227000e08048003043880041438800504380009c
:102280006143800061004000e080480050438800c6
:10229000614388007ac8bf000004e0004a003a00a9
:1022a000304380004143800061005000e0805800ce
:1022b00030438800414388005043800061438000e0
:1022c00061005000e080580050438800614388005e
:1022d0003d0037007ac8bf000004e0000c003a005f
:1022e000304380004143800061004000e0804800ae
:1022f00030438800414388005043800061438000a0
:1023000061004000e080480050438800614388003d
:102310007ac8bf00e34f50002b003a0030438000e2
:102320004143800061005000e08058003043880045
:1023300041438800504380006143800061005000a9
:10234000e080580050438800614388001e00370039
:102350007ac8bf00e24f50000c003a0030438000c2
:102360004143800061004000e08048003043880025
:102370004143880050438000614380006100400079
:10238000e080480050438800614388007ac8bf005d
:10239000e14f50000c003a00304380004143800080
:1023a00061005000e08058003043880041438800bd
:1023b000504380006143800061005000e08058007d
:1023c00050438800614388001e4078007ae8b700d7
:1023d0008aa0a9000080fa00000006003600f8007c
:1023e000809fbe00829fbe00849fbe00869fbe006d
:1023f0003400f80000002000a00188000000fa006e
:10240000304380004143800070f80700b2438000f1
:10241000c343800098f80700a299290093d92300ac
:10242000d7f80700f0428800014388006000b80038
:102430003043880041438800904380000000e8005a
:1024400090438800680307008760a9000080fa00b5
:102450003400f9004f03be004f02be004f01be0022
:102460004f00be003600f900004006000600fa00ea
:10247000000f780012079800230798000000eb0077
:10248000904388004440a9000000eb00000488004d
:102490000000eb00100488001e0078008040eb0074
:1024a0000c0007001e009000ae00900029010700fc
:1024b000c0092100600007000080fa00000006004b
:1024c0000000fa0036000700840007000080fa00d0
:1024d000000006000600fa00100798004147980027
:1024e000c122a9000000eb00000f7800c142a90042
:1024f000a7c0a800a7a0a900a780a9001e0090005f
:10250000e90f500003003c00a00020008043880039
:10251000020037001e0090008043880011e1a900ee
:102520000000eb00300888000001200080088800cf
:102530001e009000cf80de0024f80700d27b23002d
:10254000634823008ef807000200200003102400d7
:102550008bf807000001be000000200001f82300f6
:1025600045f807000200200003f82300b8f8070030
:1025700015f907006008880084e0a90094e0a8002d
:10258000d202a9004e409000a10007008440a9009b
:102590009440a80011e1a8000080fa0000000600a5
:1025a0000200fa00c322a9000000eb00000f78002f
:1025b000c342a90094e0a9009440a900d202a90056
:1025c0000000eb00200c880011e1a9000080fa0057
:1025d000000006000000fa00b1c0a800b1a0a900e8
:1025e000b180a9000000eb00a008880000012000d5
:1025f000f0088800b0438000c1438000d27b2300f4
:10260000636023001cf80700eff80700d00888007b
:102610008760a9009760a8001fe1a8000080fa0069
:10262000000006000000fa009760a9001fe1a90061
:102630000080fa00000006000600fa00200798005b
:102640006000b80030438800414388006000b80053
:102650005043880061438800e6c2bf0061406000cb
:102660000004e000020032001e04a0000200370057
:10267000e0cfb3001e4f6000e7c2bf0070406000b3
:102680000004e000020032001e14a0000200370027
:10269000d0cfb3001e4f60001e4078007ae8b7002c
:1026a000c1c2a8000000eb0010079800e402a800d7
:1026b000e582a800bec0a800bea0a800be80a900f8
:1026c0008aa0a9009aa0a8002e009000704388005c
:1026d000c0ff07000080fa00000006000000fa00ba
:1026e0009aa0a900cfff07000080fa0000000600b2
:1026f0000000fa00f0428000014380000080fa00f0
:10270000000006000000fa00504380006143800092
:10271000aef7070002002000433b240018f8070032
:102720000200200083442400d3f707000080fa0051
:10273000000006000800fa00100798000000eb00f7
:10274000000f78001e009000e90f500005003e00c9
:10275000a00020008043880010002000000f7800b7
:10276000020037001e0090008043880011e1a9009c
:102770000000eb00300888001e009000cf80de00d3
:1027800092f7070020079800310798001e0090007c
:102790000000e00007003d00020020000378240054
:1027a0002e009000be0090002af807002007980035
:1027b00031079800d27b2300634823002e0090004d
:1027c000be009000eef70700020020000310240076
:1027d000ebf707000001be000000200001f8230015
:1027e000a5f707000200200003f8230018f80700ef
:1027f00075f807006008880074c8bf00040007006f
:1028000011e1a8001e0078000080fa000000060018
:102810000c00fa00881f7800204798000000eb00a9
:10282000000f78002e4090000004e00008003d00fa
:102830002e4090008000fb000080eb000088b90073
:102840002047980010c0b30075e8b70002003700b9
:102850000040eb0075e8b700ae40900040c6b30002
:1028600080cf50000400340040c6b30020479800d9
:1028700010002000000f78002e40900074e8b70090
:102880000000eb00200c88000000eb00100c88001a
:102890002e4090000004e00003003a0010002000e9
:1028a000000c8800250037002e4090000000fb003f
:1028b000cf80de0045f707004007980051079800d9
:1028c000884380006140b90040f707002007980066
:1028d000310798000800e00007003d0002002000da
:1028e000037824002e009000be009000d9f7070066
:1028f000200798003107980002002000832c240054
:102900002e009000be0090009df70700d27b2300b0
:10291000634823009af707000200200003102400f8
:1029200097f707000001be004e009000de00900007
:1029300051f7070024f80700000c88005000200021
:10294000200c88001e0078004f0478000080fa00f8
:10295000000006000600fa00100798002107980002
:102960000000eb00000f780082eb210053e0230011
:102970001e009000ae00900034f807000000e00058
:1029800001003c000700370080eb210051e02300ec
:10299000b0438800c143880010002000000f780079
:1029a0001300370072712b00138d23001e0090005e
:1029b000ae00900027f807000000e000010035009d
:1029c0000700370070712b00118d2300b043880081
:1029d000c143880010002000000f78000400370079
:1029e0001e009000ae009000b0438800c1438800f4
:1029f0001e0078000080fa00000006000200fa00c5
:102a0000000f7800f0428000014380001e01780032
:102a10000089be0010438000214380001e01780021
:102a200020019800310198005043800061438000ec
:102a30001e017800600198007101980081438000b8
:102a40001e0078001108980041872000914078000e
:102a50001e00780061509800518720009140780056
:102a60001e00780071509800b0438000c143800080
:102a70001e01780040099800510998009143800098
:102a80001e007800210898000080fa00000006006f
:102a90000400fa00881f7800984380006140b90064
:102aa000caf60700008fbe000800e00005003d00e8
:102ab00002002000037824001e00be0065f7070016
:102ac000008fbe00b2438000c34380001e00be00e2
:102ad0002bf707004f0478000080fa000000060082
:102ae0000000fa000000eb00904388000080fa002c
:102af000000006003200fa000040eb00205f980062
:102b0000c00620005ef8070080007800c087200023
:102b10002100980000f02f0000168800ae599000a8
:102b200012c0b300000020006161240075f90700a5
:102b30006011b800c7f707000000e0000100350091
:102b4000030037000080eb00601798002801370071
:102b5000a2702d0033c22300401f200043fe070057
:102b6000c18720000040eb00e0409800c1872000b2
:102b70000040eb00e0409800c18720000040eb00df
:102b8000f0409800c18720000040eb00f040980022
:102b9000e07f210003fd070000003700c087200010
:102ba000604090000004e00003003a00d042800042
:102bb0000000e000f9ff3200d04280000000e00099
:102bc0000c003200d0428000ec0f5000f3ff3200c6
:102bd0000040eb00605f9800b0c0b300705f9800e9
:102be0000040eb00006798007e004700abfa07004a
:102bf000eaff3700c18720000040eb00e04098006a
:102c0000a0c0b300305f9800c08720001040900043
:102c10000080fb006101b9000080eb008080eb00c8
:102c2000020140008381480072179800031f98003a
:102c3000a0002000010020007e1190008e1990005d
:102c4000800f5100818f5900df003e007e10900000
:102c50008e189000006001000a0037001d00370048
:102c6000330037004200370052003700670037005a
:102c70007a0037008f003700a5003700bb0037000f
:102c8000cf003700c087200020009000900078001f
:102c9000410f98004e089000a6fe07000000e000db
:102ca00002003200b0c0b300305f98000040eb007b
:102cb000605f98003e599000725f98000040eb0002
:102cc000006798007e00470074fa0700600f9800c4
:102cd000b2ff3700c08720002000900090417800ac
:102ce000635798006e509000c9fe07000000e00096
:102cf00002003200b0c0b300305f98006e50900008
:102d00000000fb00101688000040eb00605f980098
:102d10003e589000705f98000040eb0000679800fc
:102d20007e0047005dfa0700600f98009bff3700a8
:102d30006ffe070024f70700301798000040eb00f3
:102d4000605f9800a0c0b300705f98006002200030
:102d50000e0040001017980020c0b30000679800d4
:102d60007e0047004dfa0700600f98008bff370088
:102d700064fe070014f707004017980051179800e9
:102d80000040eb00605f9800a0c0b300705f980047
:102d9000800220000e0040001017980040c0b300d1
:102da000006798007e0047003cfa0700600f98001b
:102db0007aff3700c0872000200090001001be007d
:102dc000120f9800230f98001e089000ae08900084
:102dd000e0fe07000000e00002003200b0c0b300d7
:102de000305f98000040eb00605f9800be59900093
:102df000735f98000040eb00006798007e0047007a
:102e000026fa0700600f980064ff3700c087200093
:102e10002000900090407800015798000e509000dc
:102e2000a40007000000e00002003200b0c0b300c0
:102e3000305f98000040eb00605f98003e599000c2
:102e4000725f98000040eb00006798007e0047002a
:102e500012fa0700600f980050ff3700c08720006b
:102e6000200090001001be006207980073079800d0
:102e70006e009000fe009000810007000000e0005e
:102e800002003200b0c0b300305f98000040eb0099
:102e9000605f9800be599000735f98000040eb009f
:102ea000006798007e004700fcf90700600f98005b
:102eb0003aff3700c0872000200090001001be00bc
:102ec00042079800530798004e019000de019000e1
:102ed00010c0b300960007000000e00002003200be
:102ee000b0c0b300305f98000040eb00605f980016
:102ef000be599000735f98000040eb000067980097
:102f00007e004700e5f90700600f980023ff3700b7
:102f1000c0872000200090001001be00220798000a
:102f2000330798002e019000be01900020c0b3002e
:102f30007f0007000000e00002003200b0c0b300d4
:102f4000305f98000040eb00605f9800be59900031
:102f5000735f98000040eb00006798007e00470018
:102f6000cef90700600f98000cff3700c0872000e3
:102f700020009000301f7800201778001e01be004e
:102f800030c0b3006a0007000000e0000200320019
:102f9000b0c0b300305f98000040eb00605f980065
:102fa0003e589000705f98000040eb00006798006a
:102fb0007e004700b9f90700600f9800f7fe370060
:102fc00082000700f5fe37000040eb00605f9800cc
:102fd000b0c0b300705f98000040eb00006798003d
:102fe0007e004700adf90700600f9800ebfe370048
:102ff0006e1090000080fa00000006000600fa0043
:10300000100798001e009000000f7800c187200074
:103010000040eb00e04098001e007800d04890008f
:10302000c087200071409800c08720007040900049
:103030000004e000030032000080eb00200798004d
:103040000c0037001e007800a0489000c0872000c8
:1030500011409800c18720001e007800e7fa0700a1
:10306000c187200010c0b300e04098000000eb00d2
:10307000200798002e0090000080fa000000060053
:103080000600fa0010079800210798000000eb00e6
:10309000000f78001e009000ae0090004bf5070076
:1030a000a0408800b14088001e0078000080fa002f
:1030b000000006000600fa00204798000000eb0020
:1030c000000f78002e4090000080fb002007980041
:1030d0002e009000e10f50000a0032002e009000f8
:1030e000e20f50000a0032002e0090000000e000c5
:1030f00001003200090037000040eb0012e8b70081
:103100000800370010c0b30012e8b7000500370010
:1031100020c0b30012e8b700020037001000200002
:10312000000f78001e0078000080fa000000060002
:103130000a00fa00204798002207980033079800f9
:103140000000eb00000f78002e4090000080fb0094
:10315000400798004e009000e20f50000c00320033
:10316000ce009000e38f50000e0032004e00900021
:10317000e10f5000010032000f0037002e009000d8
:10318000be009000c0408800d14088000c0037008d
:103190002e009000be009000e0408800f1408800c2
:1031a000070037002e009000be009000004188000c
:1031b000114188000200370010002000000f780045
:1031c0001e0078000080fa00000006000000fa00ef
:1031d00000802000218120000800090031187800bb
:1031e0000080fa00000006000600fa00889fbe007a
:1031f00020418000314180004041880051418800d9
:1032000000c8bf000080fb00200798002e0090003f
:10321000e10f5000040032002e009000e20f500039
:103220000a00320011003700184080002940800059
:103230002ffd07000001be000800be0084f5070056
:103240002041880031418800080037001840800084
:10325000294080002bfd07000001be000800be00d1
:103260007bf5070020418800314188002041800023
:1032700031418000604188007141880080418000b8
:1032800091418000424180005341800071f5070068
:1032900080418800914188002041800031418000b8
:1032a000424180005341800069f50700a041880039
:1032b000b141880030408000414080006241800080
:1032c000734180002ef507000004be0050408000ce
:1032d00061408000824180009341800028f5070012
:1032e0000001be000800be005af507000004be0041
:1032f0007040800081408000a2418000b341800086
:103300001ff507000001be000800be0051f50700d0
:10331000008fbe001e00be00abf507003cfd07009d
:0c3320004f04be000080fa000000060010
:020000040000fa
:10332c005e0800001e000000000000007c08000089
:10333c000800000000000000380800002600000013
:10334c000000000000080000380000000000000031
:10335c008408000010000000000000009408000029
:0c336c0002000000000000000000000053
:00000001FF
